:020000040800F2
:1000000000000220E1160008DF160008DD160008D7
:10001000DD160008DD160008DD16000800000000EF
:10002000000000000000000000000000DF160008D3
:10003000DF16000800000000DF160008F5010008C8
:10004000DD160008DD160008DD160008DD160008C4
:10005000DD160008DD160008DD160008DD160008B4
:10006000DD160008DD160008DD160008DD160008A4
:10007000DD160008DD160008DD160008DD16000894
:10008000DD160008DD160008DD160008DD16000884
:10009000DD160008DD160008DD160008DD16000874
:1000A000DD160008DD160008DD160008DD16000864
:1000B000DD160008DD160008DD160008DD16000854
:1000C000DD160008DD160008DD160008DD16000844
:1000D000DD160008DD160008DD160008DD16000834
:1000E000DD160008DD160008DD160008DD16000824
:1000F000DD160008DD160008DD160008DD16000814
:10010000DD160008DD160008DD160008DD16000803
:10011000DD160008DD160008DD160008DD160008F3
:10012000DD160008DD160008DD160008DD160008E3
:10013000DD160008DD160008DD160008DD160008D3
:10014000DD160008DD160008DD160008DD160008C3
:10015000DD160008DD160008DD160008DD160008B3
:10016000DD160008DD160008DD160008DD160008A3
:10017000DD160008DD160008DD160008DD16000893
:10018000DD160008DD160008DD160008DD16000883
:10019000DD160008DD160008DD160008DD16000873
:1001A000DD160008DD160008DD160008013911F81B
:1001B000013F03B9704700F8013BF8E7F0B585B09F
:1001C00001AA164600230A27B1FBF7F507FB151411
:1001D0003034092906F8014B03F101032946F3D80D
:1001E0001A44034412F8011D00F8011B9842F9D18A
:1001F00005B0F0BD024A136801331360704700BFB9
:10020000340000202DE9F04F9748DFF8CCA2BBB0B6
:1002100000F094FC4FF4C06000F061FB40F202601B
:1002200000F05DFB40F2876000F059FB8F484FF40F
:10023000005100F0DAFA8D484FF4005300220121FA
:1002400000F0D9FA0022114688484FF4005300F01C
:10025000F2FA002211468648012300F0CCFA4FF44E
:10026000D05383480022022100F0C5FA4FF4D05247
:100270000A217F4800F0FFFA042001F087FA7D4848
:1002800001F07EFA01F08CFA01F091FA00F0E4F945
:10029000002425462646A14600F062FADAF800B0AE
:1002A00000F004FA804628B126B9734800F00EFA2F
:1002B00034463546714E337883B1ABEB0903B3F561
:1002C000FA7F0BD36E4A6948137883F001034FF429
:1002D00000511370FBB100F086FAD9460121644841
:1002E000684F00F085FA011E18BF01215A463846B2
:1002F00000F068FA40B17B7883B1634A63481368C1
:100300000133136000F0E2F90DF1070000F012FA7A
:1003100030B94646C0E700F068FADEE75C48F1E72E
:100320009DF807300D2B02D00A2B40F082802CB1B3
:10033000584800F0CBF900242546E5E7002DFAD017
:1003400005F1E8030DEB0305534905F8E04C02A85D
:1003500001F084FD68B94A4B347000F180400122FD
:100360004FF4005100F502301A7000F03CFA4B488F
:10037000DFE74B4902A801F071FD58B9404B3470DA
:1003800000F180404FF4005100F502301C7000F085
:100390002CFAECE7434902A801F060FD10B90123F3
:1003A0003370E4E7404902A801F058FD002837D136
:1003B0003E4912A8FFF7FAFEDAF80010FFF7FEFE3A
:1003C0003B49FFF7F3FE7978FFF7F8FE3949FFF76D
:1003D000EDFE2D4B1968FFF7F1FE3749FFF7E6FEFA
:1003E000274B1978FFF7EAFE3449354AFFF7DEFE5E
:1003F0002C4B317800290CBF11461946FFF7D6FE69
:100400003049FFF7D3FE054600F05AF90146284669
:10041000FFF7D4FE2C49FFF7C9FE047012A888E745
:100420002A4902A801F01AFD08B9294881E729489C
:100430007FE7082B01D07F2B03D1002D18BF013D92
:1004400062E7A3F120025E2A3FF65EAF002C7FF444
:100450005BAF3E2D9FBF05F1E8026A44013502F80B
:10046000E03C88BF04464FE79420000800080240A3
:1004700000000240FF760100CC1E000800000020B2
:100480003000002028000020240000209C1E0008CE
:10049000AD1E0008F61E00080A1F0008A31F000872
:1004A000111F0008BF1E0008191F0008201F0008A8
:1004B0002B1F0008341F00083E1F0008441F0008BF
:1004C000C51E00084B1F0008071F0008551F000825
:1004D0005A1F0008851F000834000020064A002328
:1004E0001370064A1370064A1360064A1360064AE0
:1004F0001360064A13607047CD030020CC03002030
:100500003C00002040000020440000204800002063
:10051000F0B591B040236A4600F0D7FB114B1E782E
:10052000AEB1114A114D12682B68FF32D21AD2B205
:10053000904208D800210E4F6A460C46A04208D8C7
:1005400029B12B6003E00B4A13680133136011B02B
:10055000F0BD12F8011BF9540133DBB2013431460E
:10056000ECE700BFCC0300203C000020400000204E
:100570004C0000203800002010B5888858BB4C780B
:10058000212C23D0222C02D0202C13D010BDCB88BC
:10059000002BFBD14B88114A03F0010313703BB9C8
:1005A0000F4A13600F4A13600F4A13600F4A13601B
:1005B0000120EBE71B88072BE8D112680C4B116870
:1005C00019609188998092799A71F1E708491160D0
:1005D00007221A80ECE70020D8E700BFCC030020F8
:1005E0003C00002040000020440000204800002083
:1005F0001000002037B5FFF771FF0129134B0CBF26
:100600000122002204461A701DD1114B00930025CF
:100610004023022200F032FB2046009540230222B4
:10062000822100F02BFB204600951023032283211A
:1006300000F024FB074B7F222121204603B0BDE8B8
:10064000304000F01ABF03B030BD00BFCD03002022
:1006500011050008790500081FB5802302930B4B94
:10066000019303230A4A00930A490B4B0B480C4C95
:1006700000F0D6FA0B49206000F0DCFD0A49206842
:1006800004B0BDE8104000F0F3BA00BF4C030020F6
:10069000CD1F00086620000804000020F820000894
:1006A000D0030020F5050008DD040008024B18788F
:1006B00008B1024B18787047CD030020CC0300200E
:1006C000014B1868704700BF3800002070B5054620
:1006D000FFF7ECFF0446D0B1284601F0D7FB114AE2
:1006E000114E1268336802F2FF12D21AC2F30802E6
:1006F000904208D82A4628440C4D0021904209D146
:1007000031B1336004E00A4A1368013313600024F6
:10071000204670BD12F8011BE9540133C3F30803EE
:100720002146EBE744000020480000204C01002057
:1007300038000020074A08491368096899421FBF1A
:100740000649C95C017001331DBFDBB20120136093
:10075000002070473C000020400000204C0000209A
:10076000F0B5144F91B0386800F084FAFFF79EFF9F
:10077000F0B1114B114E1A683468A24218D01049DA
:100780006B460025085D18700134C4F30804A242CA
:1007900005F1010503D03F2D03F10103F2D13868C3
:1007A000ABB26A46822100F089FAA84208BF3460E1
:1007B00011B0F0BDD003002048000020440000200C
:1007C0004C01002003788B4243781CBF01704260CB
:1007D0008B4206D04368D21A182A02D941700120F0
:1007E000704700207047816170470904816170473C
:1007F0000069084070472DE9F0410568C46800268B
:100800004FF0030E43FA06F7FF070DD577000EFAF7
:1008100007FC01FA07F825EA0C0524EA0C0402FAA1
:1008200007F748EA05053C430136102EEAD105607A
:10083000C460BDE8F081012941680CBF19439943A8
:10084000F0B54160856800244FF0030C61000CFA9C
:1008500001F643FA04F725EA060602FA01F117F059
:10086000010F41EA060104F1010418BF0D46102CE6
:10087000ECD18560F0BDF0B5066A456A00244FF002
:100880000F0EA3000EFA03F742FA04FC26EA07074C
:1008900001FA03F31CF0010F43EA070304F101041A
:1008A00018BF1E46082CECD100244FF00F0EA300F9
:1008B00004F108070EFA03FC25EA0C0C42FA07F7CC
:1008C00001FA03F317F0010F43EA0C0304F10104EA
:1008D00018BF1D46082CEAD106624562F0BD4309E7
:1008E00003F1804303F50E3300F01F001968012265
:1008F00082400A431A60704706282BD8DFE800F0D0
:10090000041E240A10161A00134BD3F80008C0F373
:1009100040607047104BD3F80008C0F34040704768
:100920000D4BD3F80008C0F3400070470A4BD3F8D2
:100930007008F8E7084BD3F87408F4E7064BD3F8CF
:100940000008C0F340707047034BD3F80008C0F3B1
:10095000C0607047002070470030024008B5024672
:100960001046FFF7C9FF0028FAD008BD06280CD8AA
:10097000DFE800F004282E0C12182000174AD2F8E5
:10098000003843F08073C2F800387047134AD2F839
:10099000003843F48033F6E7104AD2F8003843F0C9
:1009A0000103F0E70D4AD2F8703843F00103C2F8B2
:1009B00070387047094AD2F8743843F00103C2F81E
:1009C00074387047054AD2F8003843F08053DAE7AC
:1009D000024AD2F8003843F08063D4E70030024086
:1009E00006280CD8DFE800F004282E0C121820008E
:1009F000174AD2F8003823F08073C2F800387047E5
:100A0000134AD2F8003823F48033F6E7104AD2F8BC
:100A1000003823F00103F0E70D4AD2F8703823F0D4
:100A20000103C2F870387047094AD2F8743823F0CD
:100A30000103C2F874387047054AD2F8003823F031
:100A40008053DAE7024AD2F8003823F08063D4E713
:100A500000300240044AD2F8083823F0030303436D
:100A6000C2F80838704700BF00300240044AD2F88C
:100A7000083823F4604343EA4033C2F8083870472B
:100A800000300240044AD2F8083823F4E05343EA25
:100A90008023C2F80838704700300240044AD2F878
:100AA000083823F0F00343EA0013C2F8083870470F
:100AB0000030024010B547F6C07404EA811400F01B
:100AC0003F001B0603F0706304431C43029B520863
:100AD000022B02F1FF324FEA024238BF022302F436
:100AE00040321B0703F0E04314431C43014BC3F89F
:100AF000044810BD0030024010B5029C022C38BFE3
:100B0000022424071B0603F0706304F0E04452083B
:100B10001C4300F03F0047F6C073013A03EA81131B
:100B2000044312041C4302F44032034B144344F4C4
:100B30008004C3F8044810BD0030024073B5044679
:100B40000420FFF713FFFFF709FF0020FFF782FFE4
:100B5000E379012B04D10320FFF708FFFFF7FEFE26
:100B600040F61C00FFF7BBFEE07B00F05BFE207B45
:100B7000FFF794FF607BFFF785FFA07BFFF776FF11
:100B80000020FFF72DFFE679A5792078618822798A
:100B900063790095012E2FD1FFF7AEFF0020FFF7FC
:100BA000E5FEFFF7DBFEA3685A0528D500F012FE2C
:100BB000A3689B0526D500F021FEA06800F0FEFD8D
:100BC0000220FFF747FF124AD2F8083803F00C035F
:100BD000082BF9D10F4B22691A600F4B62691A601A
:100BE0000E4BA2691A60E379012B0ED1042002B0EA
:100BF000BDE87040FFF7F4BEFFF75CFFCEE700F002
:100C0000F3FDD5E700F004FED7E702B070BD00BFEA
:100C100000300240200000201C00002018000020AE
:100C2000F8B51D460368164604460F469847079ACE
:100C30004261BDF8202002830A4A069BC0F880204A
:100C4000094A0361C2670023084AC0F8EC40C0E9C2
:100C50000076C0E93C33C0E93633C0E93833C560BB
:100C60008267F8BDA714000853150008D7150008BF
:100C700001627047D0F8EC305B6A184710B4D0F8C6
:100C8000EC40A468A44610BC604737B50368002553
:100C900004464583DB7900952A462946FFF7EEFF97
:100CA000D4F8EC3029465B6820469847236A1BB18C
:100CB00003B0BDE83040184703B030BD10B4D0F8E1
:100CC000EC40E469A44610BC604710B4D0F8EC4096
:100CD000246AA44610BC6047D0F8EC301B69184762
:100CE000D0F8EC309B691847D0F8EC305B691847B6
:100CF00008B50B7873B949887F2909D8D0F8EC304A
:100D0000C9B2817693F834200AB15B689847012311
:100D1000184608BD0023FBE7F8B50D464988044690
:100D200079B103680D26587C0023984201D8002031
:100D3000F8BD626806FB032252798A4203D0013370
:100D4000F3E74FF0FF330133DBB2E3764BB9D4F86E
:100D5000EC302046DB689847D4F8D8309BB90120A6
:100D6000E6E76268013B0D2101FB032200231846E0
:100D700011799942EBD9D2F809101E01715801B1CD
:100D800008700133F4E70023A3652366A366236795
:100D900004F1D40604F1E40756F8043F13B169885E
:100DA00020469847BE42F7D1D9E71988012984BF68
:100DB00001211980C37E11682BB14268013B0D20CF
:100DC00000FB03235B790B700120704770B51D4653
:100DD000C37E4468013B0D2202FB03448A882379C9
:100DE000934219D9D4F809304C88160103EB02124A
:100DF0001279A24210D99A5952B11470D0F8E83041
:100E000013B14A888988984700232B80012070BD40
:100E1000002CF3D01046FAE70020F8E730B5C47E86
:100E20004068013C0D2505FB04008D880479A5422E
:100E30000CD201241C808B88D0F809001B011B58A0
:100E400003B11B7812680120137030BD0020FCE74D
:100E50001988022984BF02211980116800230B70B0
:100E6000126801205370704710B514461A88022A80
:100E700084BF02221A808988C9B2FFF731FF236834
:100E8000003818BF01201870236800225A70012012
:100E900010BD08B589880122C9B2FFF71DFF0120E6
:100EA00008BD08B589880022C9B2FFF715FF0120E7
:100EB00008BD00002DE9F04F9B464B88DDB21B0AB0
:100EC000032B89B0174600F0488105D8012B28D0A4
:100ED000022B34D000202FE00F2BFBD18468002C94
:100EE000F8D0002DF6D1D0F81490C2F8009094F804
:100EF0000080BBF80060B04528BFB046424621469E
:100F0000484600F0B5FFA6EB080623780193B6B279
:100F10002279EBB29A4200F2D780019BA9F8023005
:100F2000E0E0036813601B78BBF80020934228BF01
:100F30001346ABF80030012009B0BDE8F08F4369DB
:100F4000136003930D234768BBF8004003985D438B
:100F50007B197E5D0593A64228BF26463246194678
:100F600000F086FF039B7D5DA41B3344A4B20022E6
:100F70000192059A1179BDF80420914204D8039B8F
:100F80005D80ABF80060D6E7019A019912010692E4
:100F9000059AD2F8092002EB0112D2F80880B8F1C4
:100FA000000F11D098F80070A74228BF27463A4694
:100FB0001846414600F05CFF98F80020E41B2A44E4
:100FC000C319A4B23E4495B200220492059A069930
:100FD000D2F809200A44BDF810101079884202D8CE
:100FE000019A0132C4E70499D2F80C80152000FB65
:100FF00001F708EB070218F807900292A14528BFF5
:10100000A1464A4608EB0701184600F031FF18F8E0
:1010100007202A4495B2029AD2F80D10A4EB0904D5
:1010200000EB0903A4B24E4491B1D2F81170A7426B
:10103000A8BF2746BAB2184600F01AFF029AD2F8A3
:101040001120E41B2A4410FA87F3A4B23E4495B25F
:101050000027029A1179BAB2914202D8049A013259
:10106000B3E7029AC7EB0719D2F809A01AF80920CA
:101070000AEB0908A24228BF2246414618460792B9
:1010800000F0F6FE079AD8F80710A41A8318164441
:101090001AF809202A44A4B295B299B1D8F80B9055
:1010A000A145A8BFA1461FFA89F2184600F0E0FE4C
:1010B000D8F80B20A4EB09042A4410FA89F3A4B24F
:1010C0004E4495B20137C4E7D4F8053002936B0162
:1010D0000393029B03EB451A9AF80230052B08D0C4
:1010E0004FF00008B8F10000ABF8008018BF0120F5
:1010F00022E7142E09EB0803374628BF14271846A9
:101100003A465146039300F0B3FE434910220AF1D8
:10111000040000F093FE039BD8B9F21B92B2082A98
:1011200028BF08220392D819DAF8141000F0A0FEA4
:10113000039A1744BFB267B16A01029B9B5C019A94
:10114000F61B1A4447440192B6B21FFA87F80135DC
:10115000DEE6002EC4D13746EEE746697DB90923A5
:10116000B3700423F3703370BBF80030042B28BF36
:101170000423ABF80030032373703E60DBE6D0F845
:10118000F030AB421CD1D0F8F440204600F07EFE97
:1011900001304000C0B23070BBF80030834228BF3D
:1011A0000346ABF800300023BBF800205208013A98
:1011B0009A42E0DD06EB4302E15C51800133F3E744
:1011C000C468002C3FF486AE0369013DAB427FF753
:1011D00081AE8A8840F209439A427FF47BAE54F88C
:1011E0002540204600F052FE01304000C0B2307071
:1011F000BBF80030834228BF0346ABF80030002321
:10120000BBF800205208013A9A42B4DD06EB4302D3
:10121000E15C51800133F3E7E820000819880229D6
:1012200084BF02211980116800230B70126801200D
:101230005370704710B500F1D402002352F8044FE8
:101240003CB18C4208D00133042BF7D14FF0FF3072
:1012500010BD363340F823100020F9E730B44C7845
:10126000092C12D8DFE804F005111111110D0F112E
:10127000090B074CA44630BC6047064CFAE7064C05
:10128000F8E7064CF6E7064CF4E7002030BC704760
:10129000510E0008AB0D0008190D0008F10C0008F4
:1012A000B50E000810B44C780A2C06D00B2C06D0D2
:1012B0003CB9054CA44610BC6047044CFAE7044C0A
:1012C000F8E7002010BC70471D1200081D0E000832
:1012D000CD0D000810B44C78012C05D0032C08D09B
:1012E00074B1002010BC70474C88002CF9D1054C1B
:1012F00003E04C88002CF4D1034CA44610BC60479A
:10130000024CFAE7A30E0008930E0008690E0008CD
:1013100010B40C7814F0600F0FD104F01F04012CEE
:1013200005D0022C06D044B910BCFFF797BF10BC03
:10133000FFF7B8BF10BCFFF7CDBF002010BC70474F
:1013400010B50268B0F84030D179C26B8B420446C8
:1013500011D90B460021FFF7B1FC022384F830308D
:101360002368DA79E36B1344E363B4F840309B1AE3
:10137000A4F8403010BD0021FFF7A0FC94F84830DD
:10138000C3F1030384F83030002384F84830A4F814
:101390004030E363EEE72DE9F74F04460E4605467D
:1013A00000F1200900F13C0700F14408D5F858B0DD
:1013B000BBF1000F0AD095F85D10337895F85C20EA
:1013C0000B409A4210D008354D45EFD1A36804F187
:1013D0003C07B3B904F140033A463146204603B016
:1013E000BDE8F04FFFF794BFCDF8008004F1400353
:1013F0003A4631462046D8470128E4D803B0BDE834
:10140000F08FE56C002DE5D0317801F07F014029A7
:10141000E0D104F140033A4631462046A84701286E
:10142000D8D8EBE710B5012204460021FFF754FCA1
:10143000002384F8303010BD70B50368B0F8402048
:10144000448FDB79C16BA41A9C42A8BF1C46A6B28C
:101450000A44334600210546FFF737FC864205D093
:101460002846FFF7DFFF4FF0FF3070BDB5F8403082
:101470001E44A5F84060A0B2F7E770B5002400F163
:10148000580656F834502DB10134042CF9D14FF0E0
:10149000FF3070BD00EBC404284684F85C1084F86B
:1014A0005D20A365F5E738B50446002501224564B3
:1014B0002946FFF719FC638F9AB272B96269E26339
:1014C000A4F8403004F134012046FFF764FFF0B97E
:1014D0002046BDE83840FFF7A5BF94F93410002935
:1014E000ECDB238B9342F3D36369E3632368A4F8B3
:1014F0004050DB7993422CBF0623052384F830301B
:101500002A4629462046BDE83840FFF7EDBB638FE9
:10151000B3B1B4F84020934210D942B12368DB79CB
:10152000B2FBF3F103FB1122B2FA82F2520984F802
:1015300048202046BDE83840FFF702BF0022F6E70A
:101540001A4619462046FFF7B9FB042384F83030C9
:1015500038BD10B590F83030062B044613D0072B59
:1015600028D0052B22D1FFF767FF01300AD0B4F84D
:101570004020638F9B1A2268D279934202DC0623B3
:1015800084F8303010BDFFF757FF0130FAD004F176
:1015900034012046FFF7FFFE38B100231A461946F2
:1015A0002046FFF78BFB0423EAE72046BDE8104006
:1015B000FFF738BF00231A461946FFF786FB0023C2
:1015C00084F83030636C1BB104F134012046984735
:1015D00000236364D6E710B590F83030032B04463F
:1015E00007D0042B0ED0022B23D1BDE81040FFF70B
:1015F000A7BE072380F830300022BDE81040114616
:10160000FFF772BB436C13B100F13401984794F8B3
:10161000343053B994F83530052B06D1E18ED4F827
:10162000EC30C9B25B6820469847002384F830301C
:1016300010BDBDE81040FFF7F5BE000008B540F250
:101640008760FFF74CF94FF0A043DA6842F04002A0
:10165000DA601A69002AFCDA1A6942F001021A619A
:101660004FF0A0431A69D207FCD4DA6B1948B2F5DF
:10167000005F9A6B2CBF42F4041242F410229A636A
:101680004FF0A043D3F8042822F00202C3F8042844
:10169000DA6842F0804242F47052DA6002225A6103
:1016A000D3F8002842F00302C3F800280022C3F850
:1016B000002E9A6842F001029A60074A9A614FF040
:1016C0000F12C3F81C280122C3F810280922C3F8FE
:1016D000142808BDD403002010380C80FEE77047A2
:1016E00038B51D4A1D4B1E498B4220D31D4A00218F
:1016F000934221D34FF0E0231B4CD3F8142D1B4D04
:1017000042F40072C3F8142DD3F8882D42F470020D
:10171000C3F8882DAC4212D3154C164DAC4212D3EF
:10172000FEF770FD144C154DAC4210D338BD52F885
:10173000040B43F8040BD7E743F8041BD8E754F82D
:10174000043B9847E6E754F8043B9847E6E754F82B
:10175000043B9847E8E700BF38210008000000205C
:1017600024000020E8040020302100083021000877
:101770003021000830210008302100083021000805
:101780004FF0E02320F07F40586170474FF0E02297
:1017900000F00400136923F004030343136170474E
:1017A0004FF0E022136943F00203136170474FF0DA
:1017B000E022136943F0010313617047044AD2F831
:1017C000003C23F00F030343C2F8003C704700BF06
:1017D00000300240034AD2F8003C43F48063C2F870
:1017E000003C704700300240034AD2F8003C23F42A
:1017F0008063C2F8003C704700300240034AD2F8D0
:10180000003C43F40073C2F8003C704700300240D3
:10181000034AD2F8003C23F40073C2F8003C70473E
:1018200000300240024A136860F38F331360704740
:1018300000700040036B03F5106303EB411330B5F8
:101840001A6842F000621A60026B4C0102EB41110F
:1018500001F608152B685B06FCD5D1F800399B0D05
:1018600011690029FCDA9B0103F4707343F0200333
:101870001361036B03F110010A6812F02002FBD11F
:1018800003F511631A5130BDD0F8EC301A6BD2F861
:10189000003861F30A13C2F8003870472DE9F041AF
:1018A000D0F8EC50069F2C6B11F07F064FEA93089E
:1018B00034D1EA8E6262296B42EA08448C62424467
:1018C0003F2BA0F8FA20A0F8F8202A6B1BD9C2F809
:1018D0000069296BD1F8002942F0006242F400420D
:1018E000C1F8002903F07F032A6B43F0005343F44F
:1018F0000023C0F80031C2F8103B2B6B2A4AC3F812
:10190000002BBDE8F0811F2B03D90121C2F800197B
:10191000DFE70F2B8CBF02210321F7E709064FEA0F
:10192000461C4FEA8242C3F30A0E19D443F4002145
:1019300004F5316406F1400340F8231044F80C101C
:10194000296B42EA0E0301F5306143F0144343F47E
:10195000004341F80C300C2303FB0603DF67D0E79C
:10196000B0F8F83004EB860443EA0841C4F80011EB
:101970004344A0F8F8302B6B03F51163002143F8C2
:101980000C1042EA8653296B43EA0E0301F51061FD
:1019900043F0C05343F4004341F80C300C2303FBE5
:1019A00006008767ADE700BF00800088B0F8FA3016
:1019B000D0F8EC20A0F8F8304FF43263116B58588F
:1019C0000028BEBF585840F090405850116BA1F508
:1019D0000071C8580028BEBFC85840F09040C85099
:1019E0002033B3F5386FE9D1136B4FF48661196179
:1019F000136B03F11000016811F0300FFBD119696E
:101A000021F4F861196102202023116B01F60831DD
:101A1000C850116B01F60811C8502033802BF4D147
:101A2000704710B5D0F8EC4011F07F00236B0CD15B
:101A300032B1D3F8002942F40012C3F8002910BDD6
:101A4000D3F8002922F40012F7E709064FEA401004
:101A500012D403F530635AB11A5842F400121A50E6
:101A6000236B03F530631A5842F080521A50E6E7B0
:101A70001A5822F40012F2E703F510633AB11A582B
:101A800042F400121A50236B03F51063EBE71A5867
:101A900022F40012F6E7D0F8EC301B6B01F07F0265
:101AA00009064FEA421254BF03F5306303F5106391
:101AB0009858C0F3405070470B060ED4431883F873
:101AC000FC20D0F8EC301B6B03F5306303EB4111C5
:101AD0000B681AB143F000630B60704743F08063FA
:101AE000FAE72DE9F3410746D0F8EC001C46036BFA
:101AF00001F07F0503F5106303EB451390461A6868
:101B000022F07F5222F47012520C5204B2F1004FB4
:101B100029464FEA45164FD01B68002B11DAFFF714
:101B200089FE036B03F510639A5942F080429A5183
:101B3000036B03F6081399190A689207FCD5022271
:101B40009A51026B02F511614DBB04F07F0343F41F
:101B50000023C2F81039036B03F5106305F1010C83
:101B60009A5942F004429A5124F0030100234FEAAB
:101B70000C3C8B4219D3A3070DD00023621A01A895
:101B80004144019300F074F9D7F8EC30019A1B6BD3
:101B900001352D03EA50204602B0BDE8F08144F043
:101BA000005343F400237350D5E7026B58F80360E9
:101BB0004CF802600433DCE70024ECE773B505461B
:101BC0001046B5F81021934228BF13461C4623F057
:101BD00003060023B3421AD3A30721D0D5F8EC3073
:101BE0001B6B03F58053A21B1B680193304401A9B2
:101BF00000F03EF9B5F810310436B34286BF043B1D
:101C00001B1B0023A5F81031204602B070BDD5F88B
:101C1000EC10096B01F580510968C1500433D9E714
:101C2000121BA5F81021EFE7D0F8EC20136B2DE97B
:101C3000F0475E6999690E40F50404460CD5FFF73C
:101C4000B5FE2046FFF721F8D4F8EC301B6B4FF4BB
:101C500080525A61BDE8F08716F4005502D04FF467
:101C60000052F6E7710334D40C274FF02008D4F863
:101C7000EC00036B596911F010014ED13503D3F814
:101C80001828D3F81C3800F1AC80310500F1BA8077
:101C9000002E08DAA36A03B19847D4F8EC301B6B26
:101CA0004FF000425A61330707D5E36A03B1984702
:101CB000D4F8EC301B6B08225A61D4F8EC30E26A9D
:101CC0001B6B002A00F0A8809A6942F008029A6112
:101CD000C0E700F178084FF00C09136B6F0103F6B1
:101CE0000812D259D2070DD503F51063DA5942F024
:101CF0000062DA5109FB05F358F8033013B1E9B279
:101D000020469847D4F8EC20136B03F608130135EE
:101D1000D959D951042DE0D1A6E71A6A02F4F01A74
:101D200002F00F05BAF5002FC2F30A12A4F8102131
:101D300033D0BAF5402F38D0BAF5802F47D0D4F839
:101D4000EC10B4F810010B6B002203F5805C90429C
:101D500043D80022BAF5002FA4F8102102D0BAF51A
:101D6000C02F84D105F1400203F5316303EB451325
:101D700054F822201A600B6B03F5306303EB451314
:101D800025441A6895F8FC1000290CBF4FF0044157
:101D90004FF008410A431A6069E707FB0543D3F88F
:101DA0008030294620469847C9E703F5116315FBA3
:101DB00008331B681B0302D52946FFF73BFD0823A8
:101DC00004F1340229462046FFF7F8FEB7E707FB87
:101DD0000543DB6F002BE4D1B1E7DCF800E004320F
:101DE000B5E713401B0C002B3FF44FAFDA0744BF9D
:101DF000026B02F608324FEA530344BF5558555060
:101E00002031F0E7636A03B19847D4F8EC301B6BDC
:101E10004FF400625A613BE79A6922F0080256E7E4
:101E2000D0F8EC301B6BD3F8042821B142F0020249
:101E3000C3F80428704722F00202F9E710B501390F
:101E40000244904201D1002005E0037811F8014FCF
:101E5000A34201D0181B10BD0130F2E710F8012B8E
:101E600011F8013B012A28BF9A42F7D0D01A7047D7
:101E70000A44914200F1FF3300D1704710B511F8C8
:101E8000014B03F8014F9142F9D110BD034613F8FD
:101E9000012B002AFBD1181A01387047627574743F
:101EA0006F6E20707265737365640D0A00627574DD
:101EB000746F6E2072656C65617365640D0A0062F3
:101EC0006C696E6B006D616E75616C006465766245
:101ED0006F6172642072656164790D0A547970656E
:101EE0002068656C7020666F7220636F6D6D616E27
:101EF00064732E0D0A00436F6D6D616E6420746F04
:101F00006F206C6F6E672E0D0A006C6564206F6E1B
:101F1000006C6564206F666600737461747573008D
:101F2000757074696D655F6D733D002062757474C2
:101F30006F6E3D0020707265737365733D00206C99
:101F400065643D00206D6F64653D002064726F70B4
:101F50007065643D0068656C700068656C70207C1D
:101F600020737461747573207C206C6564206F6EBF
:101F7000207C206C6564206F6666207C20626C6922
:101F80006E6B0D0A00556E6B6E6F776E20636F6D12
:101F90006D616E642E20547970652068656C702EBA
:101FA0000D0A006F6B0D0A004556560044657662B7
:101FB0006F617264205553422073657269616C00D1
:101FC000444556424F4152442D3030310009020001
:101FD000000201008032DC1F000800000000000049
:101FE00001000000000000001120000800000000B7
:101FF0000100000000000000FC1F000809040100AF
:10200000020A000000392000080000000000000063
:1020100000090400000102020100572000082620E8
:102020000008130000000524001001052401000130
:1020300004240202052406000107050102400000F5
:1020400000000000000000000705820240000000C0
:1020500000000000000000070583031000FF0000DF
:102060000000000000001201000202000040830492
:10207000405700010102030119005001040700014B
:10208000020600000004000300BD010580DE80029E
:1020900000BD01051900C000020400010306000094
:1020A0000004000300D8B805006CDC0200D8B805B5
:1020B0001900500102070001050600000005040395
:1020C000007A030A80DE800200BD01051900680164
:1020D0000208000105060000000504030095BA0A85
:1020E00040A5AE02804A5D05DF60DDD88945C74C5A
:1020F0009CD2659D9E648A9F3D1600088918000841
:102100009D180008AD190008231A0008B91A000824
:10211000971A0008E31A0008BD1B0008291C0008D4
:10212000211E0008000000000000005001002600F1
:082130002CFDFF7F01000000FF
:1021380001000000A81F0008AC1F0008C01F00080D
:1021480000C20100000008000024F4000024F4008C
:042158000024F4006B
:04000005080016E1F8
:00000001FF
